{
  "address": "0xB8c2BE2b389586EbbFadB782DF95CF56256F8E20",
  "abi": [
    {
      "inputs": [
        {
          "internalType": "contract IEntryPoint",
          "name": "_entryPoint",
          "type": "address"
        }
      ],
      "stateMutability": "nonpayable",
      "type": "constructor"
    },
    {
      "inputs": [],
      "name": "accountImplementation",
      "outputs": [
        {
          "internalType": "contract SimpleAccount",
          "name": "",
          "type": "address"
        }
      ],
      "stateMutability": "view",
      "type": "function"
    },
    {
      "inputs": [
        {
          "internalType": "address",
          "name": "owner",
          "type": "address"
        },
        {
          "internalType": "uint256",
          "name": "salt",
          "type": "uint256"
        }
      ],
      "name": "createAccount",
      "outputs": [
        {
          "internalType": "contract SimpleAccount",
          "name": "ret",
          "type": "address"
        }
      ],
      "stateMutability": "nonpayable",
      "type": "function"
    },
    {
      "inputs": [
        {
          "internalType": "address",
          "name": "owner",
          "type": "address"
        },
        {
          "internalType": "uint256",
          "name": "salt",
          "type": "uint256"
        }
      ],
      "name": "getAddress",
      "outputs": [
        {
          "internalType": "address",
          "name": "",
          "type": "address"
        }
      ],
      "stateMutability": "view",
      "type": "function"
    }
  ],
  "transactionHash": "0x92619303d6bcd81c18e5fb818c04a55c481e56adb6e7f53d3e8a4db6f468ef40",
  "args": [
    "0x0000000071727De22E5E9d8BAf0edAc6f37da032"
  ],
  "numDeployments": 2,
  "solcInputHash": "32d6c268aa3ad5037efe47048c0effe2",
  "bytecode": "0x60a060405234801561001057600080fd5b5060405161277638038061277683398101604081905261002f91610088565b8060405161003c9061007b565b6001600160a01b039091168152602001604051809103906000f080158015610068573d6000803e3d6000fd5b506001600160a01b0316608052506100b8565b611e088061096e83390190565b60006020828403121561009a57600080fd5b81516001600160a01b03811681146100b157600080fd5b9392505050565b60805161088f6100df60003960008181604b0152818160ed01526101ba015261088f6000f3fe608060405234801561001057600080fd5b50600436106100415760003560e01c806311464fbe146100465780635fbfb9cf146100895780638cb84e181461009c575b600080fd5b61006d7f000000000000000000000000000000000000000000000000000000000000000081565b6040516001600160a01b03909116815260200160405180910390f35b61006d6100973660046102b2565b6100af565b61006d6100aa3660046102b2565b61017b565b6000806100bc848461017b565b90506001600160a01b0381163b80156100d757509050610175565b6040516001600160a01b038616602482015284907f00000000000000000000000000000000000000000000000000000000000000009060440160408051601f198184030181529181526020820180516001600160e01b031663189acdbd60e31b17905251610144906102a5565b61014f92919061030e565b8190604051809103906000f590508015801561016f573d6000803e3d6000fd5b50925050505b92915050565b600061029e8260001b60405180602001610194906102a5565b601f1982820381018352601f9091011660408190526001600160a01b03871660248201527f00000000000000000000000000000000000000000000000000000000000000009060440160408051601f19818403018152918152602080830180516001600160e01b031663189acdbd60e31b17905290516102169392910161030e565b60408051601f19818403018152908290526102349291602001610350565b60408051601f1981840301815282825280516020918201206001600160f81b0319848301526bffffffffffffffffffffffff193060601b16602185015260358401859052605580850182905283518086039091018152607590940190925282519201919091206000905b9392505050565b6104da8061038083390190565b600080604083850312156102c557600080fd5b82356001600160a01b03811681146102dc57600080fd5b946020939093013593505050565b60005b838110156103055781810151838201526020016102ed565b50506000910152565b60018060a01b0383168152604060208201526000825180604084015261033b8160608501602087016102ea565b601f01601f1916919091016060019392505050565b600083516103628184602088016102ea565b8351908301906103768183602088016102ea565b0194935050505056fe60806040526040516104da3803806104da833981016040819052610022916102d1565b61002e82826000610035565b50506103f4565b61003e83610061565b60008251118061004b5750805b1561005c5761005a83836100a1565b505b505050565b61006a816100cd565b6040516001600160a01b038216907fbc7cd75a20ee27fd9adebab32041f755214dbc6bffa90cc0225b39da2e5c2d3b90600090a250565b60606100c683836040518060600160405280602781526020016104b360279139610180565b9392505050565b6001600160a01b0381163b61013f5760405162461bcd60e51b815260206004820152602d60248201527f455243313936373a206e657720696d706c656d656e746174696f6e206973206e60448201526c1bdd08184818dbdb9d1c9858dd609a1b60648201526084015b60405180910390fd5b7f360894a13ba1a3210667c828492db98dca3e2076cc3735a920a3ca505d382bbc80546001600160a01b0319166001600160a01b0392909216919091179055565b60606001600160a01b0384163b6101e85760405162461bcd60e51b815260206004820152602660248201527f416464726573733a2064656c65676174652063616c6c20746f206e6f6e2d636f6044820152651b9d1c9858dd60d21b6064820152608401610136565b600080856001600160a01b03168560405161020391906103a5565b600060405180830381855af49150503d806000811461023e576040519150601f19603f3d011682016040523d82523d6000602084013e610243565b606091505b50909250905061025482828661025e565b9695505050505050565b6060831561026d5750816100c6565b82511561027d5782518084602001fd5b8160405162461bcd60e51b815260040161013691906103c1565b634e487b7160e01b600052604160045260246000fd5b60005b838110156102c85781810151838201526020016102b0565b50506000910152565b600080604083850312156102e457600080fd5b82516001600160a01b03811681146102fb57600080fd5b60208401519092506001600160401b0381111561031757600080fd5b8301601f8101851361032857600080fd5b80516001600160401b0381111561034157610341610297565b604051601f8201601f19908116603f011681016001600160401b038111828210171561036f5761036f610297565b60405281815282820160200187101561038757600080fd5b6103988260208301602086016102ad565b8093505050509250929050565b600082516103b78184602087016102ad565b9190910192915050565b60208152600082518060208401526103e08160408501602087016102ad565b601f01601f19169190910160400192915050565b60b1806104026000396000f3fe608060405236601057600e6013565b005b600e5b601f601b6021565b6058565b565b600060537f360894a13ba1a3210667c828492db98dca3e2076cc3735a920a3ca505d382bbc546001600160a01b031690565b905090565b3660008037600080366000845af43d6000803e8080156076573d6000f35b3d6000fdfea26469706673582212200fb1b601647fec4fdd7c675a6da980473f3a11448b394242fa933f3f230e91e264736f6c634300081c0033416464726573733a206c6f772d6c6576656c2064656c65676174652063616c6c206661696c6564a2646970667358221220c6b769ac906e041f00ec27c921ef4c4d9271c84f25c4c247a4bac1b833b6da9d64736f6c634300081c003360c06040523060805234801561001457600080fd5b50604051611e08380380611e088339810160408190526100339161010e565b6001600160a01b03811660a05261004861004e565b5061013e565b600054610100900460ff16156100ba5760405162461bcd60e51b815260206004820152602760248201527f496e697469616c697a61626c653a20636f6e747261637420697320696e697469604482015266616c697a696e6760c81b606482015260840160405180910390fd5b60005460ff908116101561010c576000805460ff191660ff9081179091556040519081527f7f26b83ff96e1f2b6a682f133852f6798a09c465da95921460cefb38474024989060200160405180910390a15b565b60006020828403121561012057600080fd5b81516001600160a01b038116811461013757600080fd5b9392505050565b60805160a051611c586101b0600039600081816102950152818161065f015281816106e70152818161095801528181610b0201528181610b3c01528181610e520152610fd40152600081816104010152818161044a01528181610770015281816107b001526108430152611c586000f3fe6080604052600436106101025760003560e01c806352d1902d11610095578063bc197c8111610064578063bc197c81146102d9578063c399ec8814610308578063c4d66de81461031d578063d087d2881461033d578063f23a6e611461035257600080fd5b806352d1902d146102335780638da5cb5b14610248578063b0d691fe14610286578063b61d27f6146102b957600080fd5b806347e1da2a116100d157806347e1da2a146101d85780634a58db19146101f85780634d44560d146102005780634f1ef2861461022057600080fd5b806301ffc9a71461010e578063150b7a021461014357806319822f7c146101885780633659cfe6146101b657600080fd5b3661010957005b600080fd5b34801561011a57600080fd5b5061012e610129366004611565565b61037f565b60405190151581526020015b60405180910390f35b34801561014f57600080fd5b5061016f61015e3660046115e5565b630a85bd0160e11b95945050505050565b6040516001600160e01b0319909116815260200161013a565b34801561019457600080fd5b506101a86101a3366004611657565b6103d1565b60405190815260200161013a565b3480156101c257600080fd5b506101d66101d13660046116aa565b6103f7565b005b3480156101e457600080fd5b506101d66101f336600461170b565b6104df565b6101d661065d565b34801561020c57600080fd5b506101d661021b3660046117ae565b6106dd565b6101d661022e3660046117f0565b610766565b34801561023f57600080fd5b506101a8610836565b34801561025457600080fd5b5060005461026e906201000090046001600160a01b031681565b6040516001600160a01b03909116815260200161013a565b34801561029257600080fd5b507f000000000000000000000000000000000000000000000000000000000000000061026e565b3480156102c557600080fd5b506101d66102d43660046118b9565b6108e9565b3480156102e557600080fd5b5061016f6102f4366004611914565b63bc197c8160e01b98975050505050505050565b34801561031457600080fd5b506101a8610938565b34801561032957600080fd5b506101d66103383660046116aa565b6109c9565b34801561034957600080fd5b506101a8610adb565b34801561035e57600080fd5b5061016f61036d3660046119dc565b63f23a6e6160e01b9695505050505050565b60006001600160e01b03198216630a85bd0160e11b14806103b057506001600160e01b03198216630271189760e51b145b806103cb57506001600160e01b031982166301ffc9a760e01b145b92915050565b60006103db610b31565b6103e58484610bab565b90506103f082610c82565b9392505050565b6001600160a01b037f00000000000000000000000000000000000000000000000000000000000000001630036104485760405162461bcd60e51b815260040161043f90611a45565b60405180910390fd5b7f00000000000000000000000000000000000000000000000000000000000000006001600160a01b0316610491600080516020611bdc833981519152546001600160a01b031690565b6001600160a01b0316146104b75760405162461bcd60e51b815260040161043f90611a91565b6104c081610ccf565b604080516000808252602082019092526104dc91839190610cd7565b50565b6104e7610e47565b84811480156104fd57508215806104fd57508281145b61053f5760405162461bcd60e51b815260206004820152601360248201527277726f6e67206172726179206c656e6774687360681b604482015260640161043f565b60008390036105eb5760005b858110156105e5576105dd87878381811061056857610568611add565b905060200201602081019061057d91906116aa565b600085858581811061059157610591611add565b90506020028101906105a39190611af3565b8080601f016020809104026020016040519081016040528093929190818152602001838380828437600092019190915250610eda92505050565b60010161054b565b50610655565b60005b858110156106535761064b87878381811061060b5761060b611add565b905060200201602081019061062091906116aa565b86868481811061063257610632611add565b9050602002013585858581811061059157610591611add565b6001016105ee565b505b505050505050565b7f000000000000000000000000000000000000000000000000000000000000000060405163b760faf960e01b81523060048201526001600160a01b03919091169063b760faf99034906024016000604051808303818588803b1580156106c257600080fd5b505af11580156106d6573d6000803e3d6000fd5b5050505050565b6106e5610f4a565b7f000000000000000000000000000000000000000000000000000000000000000060405163040b850f60e31b81526001600160a01b03848116600483015260248201849052919091169063205c287890604401600060405180830381600087803b15801561075257600080fd5b505af1158015610655573d6000803e3d6000fd5b6001600160a01b037f00000000000000000000000000000000000000000000000000000000000000001630036107ae5760405162461bcd60e51b815260040161043f90611a45565b7f00000000000000000000000000000000000000000000000000000000000000006001600160a01b03166107f7600080516020611bdc833981519152546001600160a01b031690565b6001600160a01b03161461081d5760405162461bcd60e51b815260040161043f90611a91565b61082682610ccf565b61083282826001610cd7565b5050565b6000306001600160a01b037f000000000000000000000000000000000000000000000000000000000000000016146108d65760405162461bcd60e51b815260206004820152603860248201527f555550535570677261646561626c653a206d757374206e6f742062652063616c60448201527f6c6564207468726f7567682064656c656761746563616c6c0000000000000000606482015260840161043f565b50600080516020611bdc83398151915290565b6108f1610e47565b610932848484848080601f016020809104026020016040519081016040528093929190818152602001838380828437600092019190915250610eda92505050565b50505050565b6040516370a0823160e01b81523060048201526000906001600160a01b037f000000000000000000000000000000000000000000000000000000000000000016906370a08231906024015b602060405180830381865afa1580156109a0573d6000803e3d6000fd5b505050506040513d601f19601f820116820180604052508101906109c49190611b39565b905090565b600054610100900460ff16158080156109e95750600054600160ff909116105b80610a035750303b158015610a03575060005460ff166001145b610a665760405162461bcd60e51b815260206004820152602e60248201527f496e697469616c697a61626c653a20636f6e747261637420697320616c72656160448201526d191e481a5b9a5d1a585b1a5e995960921b606482015260840161043f565b6000805460ff191660011790558015610a89576000805461ff0019166101001790555b610a9282610fa1565b8015610832576000805461ff0019169055604051600181527f7f26b83ff96e1f2b6a682f133852f6798a09c465da95921460cefb38474024989060200160405180910390a15050565b604051631aab3f0d60e11b8152306004820152600060248201819052906001600160a01b037f000000000000000000000000000000000000000000000000000000000000000016906335567e1a90604401610983565b336001600160a01b037f00000000000000000000000000000000000000000000000000000000000000001614610ba95760405162461bcd60e51b815260206004820152601c60248201527f6163636f756e743a206e6f742066726f6d20456e747279506f696e7400000000604482015260640161043f565b565b600080610c05836040517f19457468657265756d205369676e6564204d6573736167653a0a3332000000006020820152603c8101829052600090605c01604051602081830303815290604052805190602001209050919050565b9050610c5381610c19610100870187611af3565b8080601f01602080910402602001604051908101604052809392919081815260200183838082843760009201919091525061101d92505050565b6000546201000090046001600160a01b03908116911614610c785760019150506103cb565b5060009392505050565b80156104dc57604051600090339060001990849084818181858888f193505050503d80600081146106d6576040519150601f19603f3d011682016040523d82523d6000602084013e6106d6565b6104dc610f4a565b7f4910fdfa16fed3260ed0e7147f7cc6da11a60208b5b9406d12a635614ffd91435460ff1615610d0f57610d0a83611041565b505050565b826001600160a01b03166352d1902d6040518163ffffffff1660e01b8152600401602060405180830381865afa925050508015610d69575060408051601f3d908101601f19168201909252610d6691810190611b39565b60015b610dcc5760405162461bcd60e51b815260206004820152602e60248201527f45524331393637557067726164653a206e657720696d706c656d656e7461746960448201526d6f6e206973206e6f74205555505360901b606482015260840161043f565b600080516020611bdc8339815191528114610e3b5760405162461bcd60e51b815260206004820152602960248201527f45524331393637557067726164653a20756e737570706f727465642070726f786044820152681a58589b195555525160ba1b606482015260840161043f565b50610d0a8383836110dd565b336001600160a01b037f0000000000000000000000000000000000000000000000000000000000000000161480610e8e57506000546201000090046001600160a01b031633145b610ba95760405162461bcd60e51b815260206004820181905260248201527f6163636f756e743a206e6f74204f776e6572206f7220456e747279506f696e74604482015260640161043f565b600080846001600160a01b03168484604051610ef69190611b76565b60006040518083038185875af1925050503d8060008114610f33576040519150601f19603f3d011682016040523d82523d6000602084013e610f38565b606091505b5091509150816106d657805160208201fd5b6000546201000090046001600160a01b0316331480610f6857503330145b610ba95760405162461bcd60e51b815260206004820152600a60248201526937b7363c9037bbb732b960b11b604482015260640161043f565b6000805462010000600160b01b031916620100006001600160a01b038481168202929092178084556040519190048216927f0000000000000000000000000000000000000000000000000000000000000000909216917f47e55c76e7a6f1fd8996a1da8008c1ea29699cca35e7bcd057f2dec313b6e5de91a350565b600080600061102c8585611102565b9150915061103981611147565b509392505050565b6001600160a01b0381163b6110ae5760405162461bcd60e51b815260206004820152602d60248201527f455243313936373a206e657720696d706c656d656e746174696f6e206973206e60448201526c1bdd08184818dbdb9d1c9858dd609a1b606482015260840161043f565b600080516020611bdc83398151915280546001600160a01b0319166001600160a01b0392909216919091179055565b6110e6836112fd565b6000825111806110f35750805b15610d0a57610932838361133d565b60008082516041036111385760208301516040840151606085015160001a61112c87828585611362565b94509450505050611140565b506000905060025b9250929050565b600081600481111561115b5761115b611b92565b036111635750565b600181600481111561117757611177611b92565b036111c45760405162461bcd60e51b815260206004820152601860248201527f45434453413a20696e76616c6964207369676e61747572650000000000000000604482015260640161043f565b60028160048111156111d8576111d8611b92565b036112255760405162461bcd60e51b815260206004820152601f60248201527f45434453413a20696e76616c6964207369676e6174757265206c656e67746800604482015260640161043f565b600381600481111561123957611239611b92565b036112915760405162461bcd60e51b815260206004820152602260248201527f45434453413a20696e76616c6964207369676e6174757265202773272076616c604482015261756560f01b606482015260840161043f565b60048160048111156112a5576112a5611b92565b036104dc5760405162461bcd60e51b815260206004820152602260248201527f45434453413a20696e76616c6964207369676e6174757265202776272076616c604482015261756560f01b606482015260840161043f565b61130681611041565b6040516001600160a01b038216907fbc7cd75a20ee27fd9adebab32041f755214dbc6bffa90cc0225b39da2e5c2d3b90600090a250565b60606103f08383604051806060016040528060278152602001611bfc6027913961144f565b6000807f7fffffffffffffffffffffffffffffff5d576e7357a4501ddfe92f46681b20a08311156113995750600090506003611446565b8460ff16601b141580156113b157508460ff16601c14155b156113c25750600090506004611446565b6040805160008082526020820180845289905260ff881692820192909252606081018690526080810185905260019060a0016020604051602081039080840390855afa158015611416573d6000803e3d6000fd5b5050604051601f1901519150506001600160a01b03811661143f57600060019250925050611446565b9150600090505b94509492505050565b60606001600160a01b0384163b6114b75760405162461bcd60e51b815260206004820152602660248201527f416464726573733a2064656c65676174652063616c6c20746f206e6f6e2d636f6044820152651b9d1c9858dd60d21b606482015260840161043f565b600080856001600160a01b0316856040516114d29190611b76565b600060405180830381855af49150503d806000811461150d576040519150601f19603f3d011682016040523d82523d6000602084013e611512565b606091505b509150915061152282828661152c565b9695505050505050565b6060831561153b5750816103f0565b82511561154b5782518084602001fd5b8160405162461bcd60e51b815260040161043f9190611ba8565b60006020828403121561157757600080fd5b81356001600160e01b0319811681146103f057600080fd5b6001600160a01b03811681146104dc57600080fd5b60008083601f8401126115b657600080fd5b5081356001600160401b038111156115cd57600080fd5b60208301915083602082850101111561114057600080fd5b6000806000806000608086880312156115fd57600080fd5b85356116088161158f565b945060208601356116188161158f565b93506040860135925060608601356001600160401b0381111561163a57600080fd5b611646888289016115a4565b969995985093965092949392505050565b60008060006060848603121561166c57600080fd5b83356001600160401b0381111561168257600080fd5b8401610120818703121561169557600080fd5b95602085013595506040909401359392505050565b6000602082840312156116bc57600080fd5b81356103f08161158f565b60008083601f8401126116d957600080fd5b5081356001600160401b038111156116f057600080fd5b6020830191508360208260051b850101111561114057600080fd5b6000806000806000806060878903121561172457600080fd5b86356001600160401b0381111561173a57600080fd5b61174689828a016116c7565b90975095505060208701356001600160401b0381111561176557600080fd5b61177189828a016116c7565b90955093505060408701356001600160401b0381111561179057600080fd5b61179c89828a016116c7565b979a9699509497509295939492505050565b600080604083850312156117c157600080fd5b82356117cc8161158f565b946020939093013593505050565b634e487b7160e01b600052604160045260246000fd5b6000806040838503121561180357600080fd5b823561180e8161158f565b915060208301356001600160401b0381111561182957600080fd5b8301601f8101851361183a57600080fd5b80356001600160401b03811115611853576118536117da565b604051601f8201601f19908116603f011681016001600160401b0381118282101715611881576118816117da565b60405281815282820160200187101561189957600080fd5b816020840160208301376000602083830101528093505050509250929050565b600080600080606085870312156118cf57600080fd5b84356118da8161158f565b93506020850135925060408501356001600160401b038111156118fc57600080fd5b611908878288016115a4565b95989497509550505050565b60008060008060008060008060a0898b03121561193057600080fd5b883561193b8161158f565b9750602089013561194b8161158f565b965060408901356001600160401b0381111561196657600080fd5b6119728b828c016116c7565b90975095505060608901356001600160401b0381111561199157600080fd5b61199d8b828c016116c7565b90955093505060808901356001600160401b038111156119bc57600080fd5b6119c88b828c016115a4565b999c989b5096995094979396929594505050565b60008060008060008060a087890312156119f557600080fd5b8635611a008161158f565b95506020870135611a108161158f565b9450604087013593506060870135925060808701356001600160401b03811115611a3957600080fd5b61179c89828a016115a4565b6020808252602c908201527f46756e6374696f6e206d7573742062652063616c6c6564207468726f7567682060408201526b19195b1959d85d1958d85b1b60a21b606082015260800190565b6020808252602c908201527f46756e6374696f6e206d7573742062652063616c6c6564207468726f7567682060408201526b6163746976652070726f787960a01b606082015260800190565b634e487b7160e01b600052603260045260246000fd5b6000808335601e19843603018112611b0a57600080fd5b8301803591506001600160401b03821115611b2457600080fd5b60200191503681900382131561114057600080fd5b600060208284031215611b4b57600080fd5b5051919050565b60005b83811015611b6d578181015183820152602001611b55565b50506000910152565b60008251611b88818460208701611b52565b9190910192915050565b634e487b7160e01b600052602160045260246000fd5b6020815260008251806020840152611bc7816040850160208701611b52565b601f01601f1916919091016040019291505056fe360894a13ba1a3210667c828492db98dca3e2076cc3735a920a3ca505d382bbc416464726573733a206c6f772d6c6576656c2064656c65676174652063616c6c206661696c6564a26469706673582212203d063373a70f58a2bf95d9abe1238e4acdc0384f516779385996c44a06845dc364736f6c634300081c0033",
  "devdoc": {
    "kind": "dev",
    "methods": {},
    "version": 1
  },
  "userdoc": {
    "kind": "user",
    "methods": {
      "createAccount(address,uint256)": {
        "notice": "create an account, and return its address. returns the address even if the account is already deployed. Note that during UserOperation execution, this method is called only if the account is not deployed. This method returns an existing account address so that entryPoint.getSenderAddress() would work even after account creation"
      },
      "getAddress(address,uint256)": {
        "notice": "calculate the counterfactual address of this account as it would be returned by createAccount()"
      }
    },
    "notice": "A sample factory contract for SimpleAccount A UserOperations \"initCode\" holds the address of the factory, and a method call (to createAccount, in this sample factory). The factory's createAccount returns the target account address even if it is already installed. This way, the entryPoint.getSenderAddress() can be called either before or after the account is created.",
    "version": 1
  },
  "storageLayout": {
    "storage": [],
    "types": null
  }
}